{
  "contractName": "Maintenance",
  "abi": [
    {
      "constant": true,
      "inputs": [
        {
          "name": "",
          "type": "uint256"
        }
      ],
      "name": "AirplanesList",
      "outputs": [
        {
          "name": "",
          "type": "uint256"
        }
      ],
      "payable": false,
      "stateMutability": "view",
      "type": "function"
    },
    {
      "inputs": [],
      "payable": false,
      "stateMutability": "nonpayable",
      "type": "constructor"
    },
    {
      "anonymous": false,
      "inputs": [
        {
          "indexed": false,
          "name": "name",
          "type": "string"
        },
        {
          "indexed": false,
          "name": "airline",
          "type": "string"
        },
        {
          "indexed": false,
          "name": "id",
          "type": "uint256"
        }
      ],
      "name": "addAirplane",
      "type": "event"
    },
    {
      "anonymous": false,
      "inputs": [
        {
          "indexed": false,
          "name": "partid",
          "type": "uint256"
        },
        {
          "indexed": false,
          "name": "planeid",
          "type": "uint256"
        },
        {
          "indexed": false,
          "name": "manufacturer",
          "type": "string"
        },
        {
          "indexed": false,
          "name": "cost",
          "type": "uint256"
        },
        {
          "indexed": false,
          "name": "totalcost",
          "type": "uint256"
        }
      ],
      "name": "addPart",
      "type": "event"
    },
    {
      "anonymous": false,
      "inputs": [
        {
          "indexed": false,
          "name": "flightid",
          "type": "uint256"
        },
        {
          "indexed": false,
          "name": "planeid",
          "type": "uint256"
        },
        {
          "indexed": false,
          "name": "source",
          "type": "string"
        },
        {
          "indexed": false,
          "name": "destination",
          "type": "string"
        },
        {
          "indexed": false,
          "name": "travelhours",
          "type": "uint256"
        }
      ],
      "name": "addFlight",
      "type": "event"
    },
    {
      "anonymous": false,
      "inputs": [
        {
          "indexed": false,
          "name": "insuranceid",
          "type": "uint256"
        },
        {
          "indexed": false,
          "name": "planeid",
          "type": "uint256"
        },
        {
          "indexed": false,
          "name": "typeofins",
          "type": "string"
        },
        {
          "indexed": false,
          "name": "cost",
          "type": "uint256"
        },
        {
          "indexed": false,
          "name": "travelhours",
          "type": "uint256"
        }
      ],
      "name": "addInsurance",
      "type": "event"
    },
    {
      "constant": false,
      "inputs": [
        {
          "name": "_name",
          "type": "string"
        },
        {
          "name": "_airline",
          "type": "string"
        }
      ],
      "name": "setAirplane",
      "outputs": [],
      "payable": false,
      "stateMutability": "nonpayable",
      "type": "function"
    },
    {
      "constant": true,
      "inputs": [],
      "name": "getCount",
      "outputs": [
        {
          "name": "",
          "type": "uint256"
        }
      ],
      "payable": false,
      "stateMutability": "view",
      "type": "function"
    },
    {
      "constant": true,
      "inputs": [
        {
          "name": "_id",
          "type": "uint256"
        }
      ],
      "name": "getAirplane",
      "outputs": [
        {
          "name": "",
          "type": "string"
        },
        {
          "name": "",
          "type": "string"
        },
        {
          "name": "",
          "type": "uint256"
        },
        {
          "name": "",
          "type": "uint256"
        },
        {
          "name": "",
          "type": "uint256"
        },
        {
          "name": "",
          "type": "uint256"
        }
      ],
      "payable": false,
      "stateMutability": "view",
      "type": "function"
    },
    {
      "constant": false,
      "inputs": [
        {
          "name": "_planeid",
          "type": "uint256"
        },
        {
          "name": "_manufacturer",
          "type": "string"
        },
        {
          "name": "_status",
          "type": "uint256"
        },
        {
          "name": "_rev",
          "type": "uint256"
        },
        {
          "name": "_cost",
          "type": "uint256"
        }
      ],
      "name": "setPart",
      "outputs": [],
      "payable": false,
      "stateMutability": "nonpayable",
      "type": "function"
    },
    {
      "constant": true,
      "inputs": [
        {
          "name": "_planeid",
          "type": "uint256"
        },
        {
          "name": "index",
          "type": "uint256"
        }
      ],
      "name": "getPartInfo",
      "outputs": [
        {
          "name": "",
          "type": "uint256"
        },
        {
          "name": "",
          "type": "string"
        },
        {
          "name": "",
          "type": "uint256"
        },
        {
          "name": "",
          "type": "uint256"
        },
        {
          "name": "",
          "type": "uint256"
        }
      ],
      "payable": false,
      "stateMutability": "view",
      "type": "function"
    },
    {
      "constant": false,
      "inputs": [
        {
          "name": "_planeid",
          "type": "uint256"
        },
        {
          "name": "_source",
          "type": "string"
        },
        {
          "name": "_destination",
          "type": "string"
        },
        {
          "name": "_travelhours",
          "type": "uint256"
        }
      ],
      "name": "setFlight",
      "outputs": [],
      "payable": false,
      "stateMutability": "nonpayable",
      "type": "function"
    },
    {
      "constant": true,
      "inputs": [
        {
          "name": "_planeid",
          "type": "uint256"
        },
        {
          "name": "_index",
          "type": "uint256"
        }
      ],
      "name": "getFlightInfo",
      "outputs": [
        {
          "name": "",
          "type": "uint256"
        },
        {
          "name": "",
          "type": "string"
        },
        {
          "name": "",
          "type": "string"
        },
        {
          "name": "",
          "type": "uint256"
        }
      ],
      "payable": false,
      "stateMutability": "view",
      "type": "function"
    },
    {
      "constant": false,
      "inputs": [
        {
          "name": "_planeid",
          "type": "uint256"
        },
        {
          "name": "_typeofins",
          "type": "string"
        },
        {
          "name": "_cost",
          "type": "uint256"
        },
        {
          "name": "_year",
          "type": "uint256"
        }
      ],
      "name": "setInsurance",
      "outputs": [],
      "payable": false,
      "stateMutability": "nonpayable",
      "type": "function"
    },
    {
      "constant": true,
      "inputs": [
        {
          "name": "_planeid",
          "type": "uint256"
        },
        {
          "name": "_index",
          "type": "uint256"
        }
      ],
      "name": "getInsuranceInfo",
      "outputs": [
        {
          "name": "",
          "type": "uint256"
        },
        {
          "name": "",
          "type": "string"
        },
        {
          "name": "",
          "type": "uint256"
        },
        {
          "name": "",
          "type": "uint256"
        }
      ],
      "payable": false,
      "stateMutability": "view",
      "type": "function"
    },
    {
      "constant": true,
      "inputs": [
        {
          "name": "_planeid",
          "type": "uint256"
        }
      ],
      "name": "getPartCount",
      "outputs": [
        {
          "name": "",
          "type": "uint256"
        }
      ],
      "payable": false,
      "stateMutability": "view",
      "type": "function"
    },
    {
      "constant": true,
      "inputs": [
        {
          "name": "_planeid",
          "type": "uint256"
        }
      ],
      "name": "getFlightCount",
      "outputs": [
        {
          "name": "",
          "type": "uint256"
        }
      ],
      "payable": false,
      "stateMutability": "view",
      "type": "function"
    },
    {
      "constant": true,
      "inputs": [
        {
          "name": "_planeid",
          "type": "uint256"
        }
      ],
      "name": "getInsuranceCount",
      "outputs": [
        {
          "name": "",
          "type": "uint256"
        }
      ],
      "payable": false,
      "stateMutability": "view",
      "type": "function"
    },
    {
      "constant": true,
      "inputs": [],
      "name": "getOwner",
      "outputs": [
        {
          "name": "",
          "type": "address"
        }
      ],
      "payable": false,
      "stateMutability": "view",
      "type": "function"
    },
    {
      "constant": true,
      "inputs": [
        {
          "name": "s1",
          "type": "string"
        },
        {
          "name": "s2",
          "type": "string"
        }
      ],
      "name": "compareStringsbyBytes",
      "outputs": [
        {
          "name": "",
          "type": "bool"
        }
      ],
      "payable": false,
      "stateMutability": "pure",
      "type": "function"
    },
    {
      "constant": true,
      "inputs": [
        {
          "name": "_name",
          "type": "string"
        }
      ],
      "name": "getIDbyName",
      "outputs": [
        {
          "name": "",
          "type": "uint256"
        }
      ],
      "payable": false,
      "stateMutability": "view",
      "type": "function"
    }
  ],
  "bytecode": "0x608060405234801561001057600080fd5b5033600160006101000a81548173ffffffffffffffffffffffffffffffffffffffff021916908373ffffffffffffffffffffffffffffffffffffffff160217905550611eea806100616000396000f3006080604052600436106100e6576000357c0100000000000000000000000000000000000000000000000000000000900463ffffffff1680630df85f38146100eb57806310826ea51461017c57806348bd7601146101bd5780634cf9e4d81461028057806356c0d8da146102c157806357edaa941461038d578063893d20e8146103ce578063995bef9414610425578063a6b31e9c1461054f578063a87d942c146105cc578063cb3d35bc146105f7578063cb5a27811461067e578063cfea9eff14610743578063e1bcc75b146107f2578063e9a734ff14610833578063eb5b8bca146108fa575b600080fd5b3480156100f757600080fd5b5061017a60048036038101908080359060200190929190803590602001908201803590602001908080601f0160208091040260200160405190810160405280939291908181526020018383808284378201915050505050509192919290803590602001909291908035906020019092919080359060200190929190505050610a28565b005b34801561018857600080fd5b506101a760048036038101908080359060200190929190505050610c96565b6040518082815260200191505060405180910390f35b3480156101c957600080fd5b5061027e60048036038101908080359060200190929190803590602001908201803590602001908080601f0160208091040260200160405190810160405280939291908181526020018383808284378201915050505050509192919290803590602001908201803590602001908080601f016020809104026020016040519081016040528093929190818152602001838380828437820191505050505050919291929080359060200190929190505050610cb6565b005b34801561028c57600080fd5b506102ab60048036038101908080359060200190929190505050610f3d565b6040518082815260200191505060405180910390f35b3480156102cd57600080fd5b506102f66004803603810190808035906020019092919080359060200190929190505050610f60565b6040518086815260200180602001858152602001848152602001838152602001828103825286818151815260200191508051906020019080838360005b8381101561034e578082015181840152602081019050610333565b50505050905090810190601f16801561037b5780820380516001836020036101000a031916815260200191505b50965050505050505060405180910390f35b34801561039957600080fd5b506103b860048036038101908080359060200190929190505050611121565b6040518082815260200191505060405180910390f35b3480156103da57600080fd5b506103e3611141565b604051808273ffffffffffffffffffffffffffffffffffffffff1673ffffffffffffffffffffffffffffffffffffffff16815260200191505060405180910390f35b34801561043157600080fd5b5061045a600480360381019080803590602001909291908035906020019092919050505061116b565b604051808581526020018060200180602001848152602001838103835286818151815260200191508051906020019080838360005b838110156104aa57808201518184015260208101905061048f565b50505050905090810190601f1680156104d75780820380516001836020036101000a031916815260200191505b50838103825285818151815260200191508051906020019080838360005b838110156105105780820151818401526020810190506104f5565b50505050905090810190601f16801561053d5780820380516001836020036101000a031916815260200191505b50965050505050505060405180910390f35b34801561055b57600080fd5b506105b6600480360381019080803590602001908201803590602001908080601f016020809104026020016040519081016040528093929190818152602001838380828437820191505050505050919291929050505061138d565b6040518082815260200191505060405180910390f35b3480156105d857600080fd5b506105e1611487565b6040518082815260200191505060405180910390f35b34801561060357600080fd5b5061067c60048036038101908080359060200190929190803590602001908201803590602001908080601f01602080910402602001604051908101604052809392919081815260200183838082843782019150505050505091929192908035906020019092919080359060200190929190505050611490565b005b34801561068a57600080fd5b506106b360048036038101908080359060200190929190803590602001909291905050506116a0565b6040518085815260200180602001848152602001838152602001828103825285818151815260200191508051906020019080838360005b838110156107055780820151818401526020810190506106ea565b50505050905090810190601f1680156107325780820380516001836020036101000a031916815260200191505b509550505050505060405180910390f35b34801561074f57600080fd5b506107f0600480360381019080803590602001908201803590602001908080601f0160208091040260200160405190810160405280939291908181526020018383808284378201915050505050509192919290803590602001908201803590602001908080601f0160208091040260200160405190810160405280939291908181526020018383808284378201915050505050509192919290505050611827565b005b3480156107fe57600080fd5b5061081d60048036038101908080359060200190929190505050611a40565b6040518082815260200191505060405180910390f35b34801561083f57600080fd5b506108e0600480360381019080803590602001908201803590602001908080601f0160208091040260200160405190810160405280939291908181526020018383808284378201915050505050509192919290803590602001908201803590602001908080601f0160208091040260200160405190810160405280939291908181526020018383808284378201915050505050509192919290505050611a60565b604051808215151515815260200191505060405180910390f35b34801561090657600080fd5b5061092560048036038101908080359060200190929190505050611b39565b604051808060200180602001878152602001868152602001858152602001848152602001838103835289818151815260200191508051906020019080838360005b83811015610981578082015181840152602081019050610966565b50505050905090810190601f1680156109ae5780820380516001836020036101000a031916815260200191505b50838103825288818151815260200191508051906020019080838360005b838110156109e75780820151818401526020810190506109cc565b50505050905090810190601f168015610a145780820380516001836020036101000a031916815260200191505b509850505050505050505060405180910390f35b610a30611d17565b6000600160009054906101000a900473ffffffffffffffffffffffffffffffffffffffff1673ffffffffffffffffffffffffffffffffffffffff163373ffffffffffffffffffffffffffffffffffffffff16141515610a8e57600080fd5b6002600088815260200190815260200160002060020154905080826000018181525050858260200181905250838260600181815250508482604001818152505082826080018181525050600260008881526020019081526020016000206006018290806001815401808255809150509060018203906000526020600020906005020160009091929091909150600082015181600001556020820151816001019080519060200190610b40929190611d47565b5060408201518160020155606082015181600301556080820151816004015550505060026000888152602001908152602001600020600201600081548092919060010191905055508260026000898152602001908152602001600020600301540160026000898152602001908152602001600020600301819055507f12386712aaf707073edee0ede4c4011e655a96549d06c638aac16bba37cdfc7981888886600260008d8152602001908152602001600020600301546040518086815260200185815260200180602001848152602001838152602001828103825285818151815260200191508051906020019080838360005b83811015610c4f578082015181840152602081019050610c34565b50505050905090810190601f168015610c7c5780820380516001836020036101000a031916815260200191505b50965050505050505060405180910390a150505050505050565b600060026000838152602001908152602001600020600401549050919050565b610cbe611dc7565b6000600160009054906101000a900473ffffffffffffffffffffffffffffffffffffffff1673ffffffffffffffffffffffffffffffffffffffff163373ffffffffffffffffffffffffffffffffffffffff16141515610d1c57600080fd5b600260008781526020019081526020016000206004015490508082600001818152505084826020018190525083826040018190525082826060018181525050600260008781526020019081526020016000206007018290806001815401808255809150509060018203906000526020600020906004020160009091929091909150600082015181600001556020820151816001019080519060200190610dc3929190611d47565b506040820151816002019080519060200190610de0929190611d47565b506060820151816003015550505060026000878152602001908152602001600020600401600081548092919060010191905055507f9d013b12e8cb46567a22e153048d608282f2365f29609d569ac5718f93d89d138187878787604051808681526020018581526020018060200180602001848152602001838103835286818151815260200191508051906020019080838360005b83811015610e90578082015181840152602081019050610e75565b50505050905090810190601f168015610ebd5780820380516001836020036101000a031916815260200191505b50838103825285818151815260200191508051906020019080838360005b83811015610ef6578082015181840152602081019050610edb565b50505050905090810190601f168015610f235780820380516001836020036101000a031916815260200191505b5097505050505050505060405180910390a1505050505050565b600381815481101515610f4c57fe5b906000526020600020016000915090505481565b6000606060008060006002600088815260200190815260200160002060060186815481101515610f8c57fe5b9060005260206000209060050201600001546002600089815260200190815260200160002060060187815481101515610fc157fe5b9060005260206000209060050201600101600260008a815260200190815260200160002060060188815481101515610ff557fe5b906000526020600020906005020160020154600260008b81526020019081526020016000206006018981548110151561102a57fe5b906000526020600020906005020160030154600260008c81526020019081526020016000206006018a81548110151561105f57fe5b906000526020600020906005020160040154838054600181600116156101000203166002900480601f0160208091040260200160405190810160405280929190818152602001828054600181600116156101000203166002900480156111065780601f106110db57610100808354040283529160200191611106565b820191906000526020600020905b8154815290600101906020018083116110e957829003601f168201915b50505050509350945094509450945094509295509295909350565b600060026000838152602001908152602001600020600501549050919050565b6000600160009054906101000a900473ffffffffffffffffffffffffffffffffffffffff16905090565b60006060806000600260008781526020019081526020016000206007018581548110151561119557fe5b90600052602060002090600402016000015460026000888152602001908152602001600020600701868154811015156111ca57fe5b906000526020600020906004020160010160026000898152602001908152602001600020600701878154811015156111fe57fe5b9060005260206000209060040201600201600260008a81526020019081526020016000206007018881548110151561123257fe5b906000526020600020906004020160030154828054600181600116156101000203166002900480601f0160208091040260200160405190810160405280929190818152602001828054600181600116156101000203166002900480156112d95780601f106112ae576101008083540402835291602001916112d9565b820191906000526020600020905b8154815290600101906020018083116112bc57829003601f168201915b50505050509250818054600181600116156101000203166002900480601f0160208091040260200160405190810160405280929190818152602001828054600181600116156101000203166002900480156113755780601f1061134a57610100808354040283529160200191611375565b820191906000526020600020905b81548152906001019060200180831161135857829003601f168201915b50505050509150935093509350935092959194509250565b60008060006003805490509150600090505b818111151561147a57611460600260008381526020019081526020016000206000018054600181600116156101000203166002900480601f0160208091040260200160405190810160405280929190818152602001828054600181600116156101000203166002900480156114555780601f1061142a57610100808354040283529160200191611455565b820191906000526020600020905b81548152906001019060200180831161143857829003601f168201915b505050505085611a60565b1561146d57809250611480565b808060010191505061139f565b6103e792505b5050919050565b60008054905090565b611498611df0565b6000600160009054906101000a900473ffffffffffffffffffffffffffffffffffffffff1673ffffffffffffffffffffffffffffffffffffffff163373ffffffffffffffffffffffffffffffffffffffff161415156114f657600080fd5b6002600087815260200190815260200160002060050154905080826000018181525050848260200181905250838260400181815250508282606001818152505060026000878152602001908152602001600020600801829080600181540180825580915050906001820390600052602060002090600402016000909192909190915060008201518160000155602082015181600101908051906020019061159e929190611d47565b50604082015181600201556060820151816003015550505060026000878152602001908152602001600020600501600081548092919060010191905055507f8f41790da5f60b8aa73503f032feeb6deb7ec894cc48348b2e43c76712aae17881878787876040518086815260200185815260200180602001848152602001838152602001828103825285818151815260200191508051906020019080838360005b8381101561165a57808201518184015260208101905061163f565b50505050905090810190601f1680156116875780820380516001836020036101000a031916815260200191505b50965050505050505060405180910390a1505050505050565b6000606060008060026000878152602001908152602001600020600801858154811015156116ca57fe5b90600052602060002090600402016000015460026000888152602001908152602001600020600801868154811015156116ff57fe5b9060005260206000209060040201600101600260008981526020019081526020016000206008018781548110151561173357fe5b906000526020600020906004020160020154600260008a81526020019081526020016000206008018881548110151561176857fe5b906000526020600020906004020160030154828054600181600116156101000203166002900480601f01602080910402602001604051908101604052809291908181526020018280546001816001161561010002031660029004801561180f5780601f106117e45761010080835404028352916020019161180f565b820191906000526020600020905b8154815290600101906020018083116117f257829003601f168201915b50505050509250935093509350935092959194509250565b600080600160009054906101000a900473ffffffffffffffffffffffffffffffffffffffff1673ffffffffffffffffffffffffffffffffffffffff163373ffffffffffffffffffffffffffffffffffffffff1614151561188657600080fd5b6001600054019150600260008381526020019081526020016000209050838160000190805190602001906118bb929190611e19565b50828160010190805190602001906118d4929190611e19565b506000816002018190555060008160030181905550600160038390806001815401808255809150509060018203906000526020600020016000909192909190915055505060008081548092919060010191905055507f01cd5c4561b536a5c67f1775a2400eb1817b8afb0a17b6d73ed91acfc73ca28b848484604051808060200180602001848152602001838103835286818151815260200191508051906020019080838360005b8381101561199757808201518184015260208101905061197c565b50505050905090810190601f1680156119c45780820380516001836020036101000a031916815260200191505b50838103825285818151815260200191508051906020019080838360005b838110156119fd5780820151818401526020810190506119e2565b50505050905090810190601f168015611a2a5780820380516001836020036101000a031916815260200191505b509550505050505060405180910390a150505050565b600060026000838152602001908152602001600020600201549050919050565b6000816040518082805190602001908083835b602083101515611a985780518252602082019150602081019050602083039250611a73565b6001836020036101000a038019825116818451168082178552505050505050905001915050604051809103902060001916836040518082805190602001908083835b602083101515611aff5780518252602082019150602081019050602083039250611ada565b6001836020036101000a03801982511681845116808217855250505050505090500191505060405180910390206000191614905092915050565b6060806000806000806002600088815260200190815260200160002060000160026000898152602001908152602001600020600101600260008a815260200190815260200160002060020154600260008b815260200190815260200160002060040154600260008c815260200190815260200160002060050154600260008d815260200190815260200160002060030154858054600181600116156101000203166002900480601f016020809104026020016040519081016040528092919081815260200182805460018160011615610100020316600290048015611c5f5780601f10611c3457610100808354040283529160200191611c5f565b820191906000526020600020905b815481529060010190602001808311611c4257829003601f168201915b50505050509550848054600181600116156101000203166002900480601f016020809104026020016040519081016040528092919081815260200182805460018160011615610100020316600290048015611cfb5780601f10611cd057610100808354040283529160200191611cfb565b820191906000526020600020905b815481529060010190602001808311611cde57829003601f168201915b5050505050945095509550955095509550955091939550919395565b60a06040519081016040528060008152602001606081526020016000815260200160008152602001600081525090565b828054600181600116156101000203166002900490600052602060002090601f016020900481019282601f10611d8857805160ff1916838001178555611db6565b82800160010185558215611db6579182015b82811115611db5578251825591602001919060010190611d9a565b5b509050611dc39190611e99565b5090565b608060405190810160405280600081526020016060815260200160608152602001600081525090565b608060405190810160405280600081526020016060815260200160008152602001600081525090565b828054600181600116156101000203166002900490600052602060002090601f016020900481019282601f10611e5a57805160ff1916838001178555611e88565b82800160010185558215611e88579182015b82811115611e87578251825591602001919060010190611e6c565b5b509050611e959190611e99565b5090565b611ebb91905b80821115611eb7576000816000905550600101611e9f565b5090565b905600a165627a7a723058203480a220fb6abc639c49bfef2682c4f73be2659f2abaad9b2ad2c906ffe951c10029",
  "source": "pragma solidity ^0.4.24;\r\n\r\ncontract Maintenance {\r\n    uint planecount;\r\n    struct Part {\r\n        uint partid;\r\n        string manufacturer; //will use numbers to show manufacturers, since string will take a lot fo space\r\n        uint status;\r\n        uint rev; //revision number\r\n        uint cost;\r\n    }\r\n    \r\n    struct Flight {\r\n        uint flightid;\r\n        string source;\r\n        string destination;\r\n        uint travelhours;\r\n    }\r\n    \r\n    struct Insurance {\r\n        uint insuranceid;\r\n        string typeofins;\r\n        uint cost;\r\n        uint year;\r\n    }\r\n    \r\n    struct Airplane {\r\n        //uint id;\r\n        string name;\r\n        string airline;\r\n        uint partcount;\r\n        uint totalcost;\r\n        uint flightcount;\r\n        uint insurancecount;\r\n        Part[] parts;\r\n        Flight[] flights;\r\n        Insurance[] insurances;\r\n    }\r\n    \r\n    \r\n    \r\n    event addAirplane(\r\n        string name,\r\n        string airline,\r\n        uint id\r\n    );\r\n    \r\n    event addPart(\r\n        uint partid,\r\n        uint planeid,\r\n        string manufacturer,\r\n        uint cost,\r\n        uint totalcost\r\n    );\r\n    \r\n    event addFlight(\r\n        uint flightid,\r\n        uint planeid,\r\n        string source,\r\n        string destination,\r\n        uint travelhours\r\n    );\r\n    \r\n    event addInsurance(\r\n        uint insuranceid,\r\n        uint planeid,\r\n        string typeofins,\r\n        uint cost,\r\n        uint travelhours\r\n    );\r\n    \r\n    address owner;\r\n    \r\n    constructor() public {\r\n        owner=msg.sender;\r\n    }\r\n    \r\n    modifier onlyOwner {\r\n        require(msg.sender == owner);\r\n        _;\r\n    }\r\n    \r\n    mapping (uint => Airplane) airplanes;\r\n    uint[] public AirplanesList;\r\n    \r\n    function setAirplane( string _name, string _airline) public onlyOwner  {\r\n        var id=planecount+1;\r\n        var plane = airplanes[id];\r\n        plane.name = _name;\r\n        plane.airline= _airline;\r\n        plane.partcount=0;\r\n        plane.totalcost=0;\r\n        AirplanesList.push(id) -1;\r\n        planecount++;\r\n        emit addAirplane(_name,_airline,id);\r\n    }\r\n    \r\n    function getCount() view public returns(uint) {\r\n        return (planecount);\r\n    }\r\n    \r\n    function getAirplane(uint _id) view public returns (string, string, uint, uint, uint, uint) {\r\n        return(airplanes[_id].name,airplanes[_id].airline,airplanes[_id].partcount, airplanes[_id].flightcount, airplanes[_id].insurancecount, airplanes[_id].totalcost);\r\n    }\r\n    \r\n    function setPart(uint _planeid, string _manufacturer, uint _status, uint _rev, uint _cost) public onlyOwner  {\r\n        Part memory temp;\r\n        var id = airplanes[_planeid].partcount;\r\n        temp.partid=id;\r\n        temp.manufacturer=_manufacturer;\r\n        temp.rev=_rev;\r\n        temp.status=_status;\r\n        temp.cost=_cost;\r\n        \r\n        airplanes[_planeid].parts.push(temp);\r\n        airplanes[_planeid].partcount++;\r\n        airplanes[_planeid].totalcost=airplanes[_planeid].totalcost+_cost;\r\n        emit addPart(id, _planeid, _manufacturer, _cost, airplanes[_planeid].totalcost);\r\n    }\r\n    \r\n    \r\n    function getPartInfo(uint _planeid,uint index) view public returns (uint,string,uint,uint, uint) {\r\n        return(airplanes[_planeid].parts[index].partid,airplanes[_planeid].parts[index].manufacturer, airplanes[_planeid].parts[index].status, airplanes[_planeid].parts[index].rev, airplanes[_planeid].parts[index].cost);\r\n    }\r\n    \r\n    function setFlight(uint _planeid, string _source, string _destination, uint _travelhours) public onlyOwner  {\r\n        Flight memory temp;\r\n        var id = airplanes[_planeid].flightcount;\r\n        temp.flightid=id;\r\n        temp.source=_source;\r\n        temp.destination=_destination;\r\n        temp.travelhours=_travelhours;\r\n        \r\n        airplanes[_planeid].flights.push(temp);\r\n        airplanes[_planeid].flightcount++;\r\n        emit addFlight(id, _planeid, _source, _destination, _travelhours);\r\n    }\r\n\r\n    function getFlightInfo(uint _planeid,uint _index) view public returns(uint, string, string, uint) {\r\n        return(airplanes[_planeid].flights[_index].flightid, airplanes[_planeid].flights[_index].source, airplanes[_planeid].flights[_index].destination,airplanes[_planeid].flights[_index].travelhours);        \r\n    }\r\n    \r\n    function setInsurance(uint _planeid, string _typeofins, uint _cost, uint _year) public onlyOwner  {\r\n        Insurance memory temp;\r\n        var id = airplanes[_planeid].insurancecount;\r\n        temp.insuranceid=id;\r\n        temp.typeofins=_typeofins;\r\n        temp.cost=_cost;\r\n        temp.year=_year;\r\n        \r\n        airplanes[_planeid].insurances.push(temp);\r\n        airplanes[_planeid].insurancecount++;\r\n        emit addInsurance(id, _planeid, _typeofins, _cost, _year);\r\n    }\r\n    \r\n    function getInsuranceInfo(uint _planeid, uint _index) view public returns(uint,string,uint,uint) {\r\n        return( airplanes[_planeid].insurances[_index].insuranceid, airplanes[_planeid].insurances[_index].typeofins,airplanes[_planeid].insurances[_index].cost,airplanes[_planeid].insurances[_index].year);\r\n    }\r\n    \r\n    function getPartCount(uint _planeid) view public returns(uint) {\r\n        return(airplanes[_planeid].partcount);\r\n    }\r\n    \r\n    function getFlightCount(uint _planeid) view public returns(uint) {\r\n        return(airplanes[_planeid].flightcount);\r\n    }\r\n    \r\n    function getInsuranceCount(uint _planeid) view public returns(uint) {\r\n        return(airplanes[_planeid].insurancecount);\r\n    }\r\n\r\n    function getOwner() view public returns(address) {\r\n        return owner;\r\n    }\r\n   \r\n   function compareStringsbyBytes(string s1, string s2) public pure returns(bool){\r\n    return keccak256(s1) == keccak256(s2);\r\n   }\r\n    \r\n    function getIDbyName(string _name) view public returns(uint) {\r\n        uint c = AirplanesList.length;\r\n        for(uint i =0;i<=c;i++) {\r\n            if(compareStringsbyBytes(airplanes[i].name,_name)) {\r\n                return i;\r\n            }\r\n        }\r\n        return 999;\r\n    }\r\n}",
  "sourcePath": "/home/viral/Code/Blockchain/ETHIndia/airplane/contracts/Maintenance.sol",
  "compiler": {
    "name": "solc",
    "version": "0.4.24+commit.e67f0147.Emscripten.clang"
  },
  "schemaVersion": "2.0.1",
  "updatedAt": "2018-08-11T20:31:49.994Z"
}