{
  "contractName": "Maintenance",
  "abi": [
    {
      "constant": true,
      "inputs": [
        {
          "name": "",
          "type": "uint256"
        }
      ],
      "name": "AirplanesList",
      "outputs": [
        {
          "name": "",
          "type": "uint256"
        }
      ],
      "payable": false,
      "stateMutability": "view",
      "type": "function"
    },
    {
      "inputs": [],
      "payable": false,
      "stateMutability": "nonpayable",
      "type": "constructor"
    },
    {
      "anonymous": false,
      "inputs": [
        {
          "indexed": false,
          "name": "name",
          "type": "string"
        },
        {
          "indexed": false,
          "name": "airline",
          "type": "string"
        },
        {
          "indexed": false,
          "name": "id",
          "type": "uint256"
        }
      ],
      "name": "addAirplane",
      "type": "event"
    },
    {
      "anonymous": false,
      "inputs": [
        {
          "indexed": false,
          "name": "partid",
          "type": "uint256"
        },
        {
          "indexed": false,
          "name": "planeid",
          "type": "uint256"
        },
        {
          "indexed": false,
          "name": "manufacturer",
          "type": "string"
        },
        {
          "indexed": false,
          "name": "cost",
          "type": "uint256"
        },
        {
          "indexed": false,
          "name": "totalcost",
          "type": "uint256"
        }
      ],
      "name": "addPart",
      "type": "event"
    },
    {
      "anonymous": false,
      "inputs": [
        {
          "indexed": false,
          "name": "flightid",
          "type": "uint256"
        },
        {
          "indexed": false,
          "name": "planeid",
          "type": "uint256"
        },
        {
          "indexed": false,
          "name": "source",
          "type": "string"
        },
        {
          "indexed": false,
          "name": "destination",
          "type": "string"
        },
        {
          "indexed": false,
          "name": "travelhours",
          "type": "uint256"
        }
      ],
      "name": "addFlight",
      "type": "event"
    },
    {
      "anonymous": false,
      "inputs": [
        {
          "indexed": false,
          "name": "insuranceid",
          "type": "uint256"
        },
        {
          "indexed": false,
          "name": "planeid",
          "type": "uint256"
        },
        {
          "indexed": false,
          "name": "typeofins",
          "type": "string"
        },
        {
          "indexed": false,
          "name": "cost",
          "type": "uint256"
        },
        {
          "indexed": false,
          "name": "travelhours",
          "type": "uint256"
        }
      ],
      "name": "addInsurance",
      "type": "event"
    },
    {
      "constant": false,
      "inputs": [
        {
          "name": "_name",
          "type": "string"
        },
        {
          "name": "_airline",
          "type": "string"
        }
      ],
      "name": "setAirplane",
      "outputs": [],
      "payable": false,
      "stateMutability": "nonpayable",
      "type": "function"
    },
    {
      "constant": true,
      "inputs": [],
      "name": "getCount",
      "outputs": [
        {
          "name": "",
          "type": "uint256"
        }
      ],
      "payable": false,
      "stateMutability": "view",
      "type": "function"
    },
    {
      "constant": true,
      "inputs": [
        {
          "name": "_id",
          "type": "uint256"
        }
      ],
      "name": "getAirplane",
      "outputs": [
        {
          "name": "",
          "type": "string"
        },
        {
          "name": "",
          "type": "string"
        },
        {
          "name": "",
          "type": "uint256"
        },
        {
          "name": "",
          "type": "uint256"
        },
        {
          "name": "",
          "type": "uint256"
        },
        {
          "name": "",
          "type": "uint256"
        }
      ],
      "payable": false,
      "stateMutability": "view",
      "type": "function"
    },
    {
      "constant": false,
      "inputs": [
        {
          "name": "_planeid",
          "type": "uint256"
        },
        {
          "name": "_manufacturer",
          "type": "string"
        },
        {
          "name": "_status",
          "type": "uint256"
        },
        {
          "name": "_rev",
          "type": "uint256"
        },
        {
          "name": "_cost",
          "type": "uint256"
        }
      ],
      "name": "setPart",
      "outputs": [],
      "payable": false,
      "stateMutability": "nonpayable",
      "type": "function"
    },
    {
      "constant": true,
      "inputs": [
        {
          "name": "_planeid",
          "type": "uint256"
        },
        {
          "name": "index",
          "type": "uint256"
        }
      ],
      "name": "getPartInfo",
      "outputs": [
        {
          "name": "",
          "type": "uint256"
        },
        {
          "name": "",
          "type": "string"
        },
        {
          "name": "",
          "type": "uint256"
        },
        {
          "name": "",
          "type": "uint256"
        },
        {
          "name": "",
          "type": "uint256"
        },
        {
          "name": "",
          "type": "uint256"
        }
      ],
      "payable": false,
      "stateMutability": "view",
      "type": "function"
    },
    {
      "constant": false,
      "inputs": [
        {
          "name": "_planeid",
          "type": "uint256"
        },
        {
          "name": "_source",
          "type": "string"
        },
        {
          "name": "_destination",
          "type": "string"
        },
        {
          "name": "_travelhours",
          "type": "uint256"
        }
      ],
      "name": "setFlight",
      "outputs": [],
      "payable": false,
      "stateMutability": "nonpayable",
      "type": "function"
    },
    {
      "constant": true,
      "inputs": [
        {
          "name": "_planeid",
          "type": "uint256"
        },
        {
          "name": "_index",
          "type": "uint256"
        }
      ],
      "name": "getFlightInfo",
      "outputs": [
        {
          "name": "",
          "type": "uint256"
        },
        {
          "name": "",
          "type": "string"
        },
        {
          "name": "",
          "type": "string"
        },
        {
          "name": "",
          "type": "uint256"
        }
      ],
      "payable": false,
      "stateMutability": "view",
      "type": "function"
    },
    {
      "constant": false,
      "inputs": [
        {
          "name": "_planeid",
          "type": "uint256"
        },
        {
          "name": "_typeofins",
          "type": "string"
        },
        {
          "name": "_cost",
          "type": "uint256"
        },
        {
          "name": "_year",
          "type": "uint256"
        }
      ],
      "name": "setInsurance",
      "outputs": [],
      "payable": false,
      "stateMutability": "nonpayable",
      "type": "function"
    },
    {
      "constant": true,
      "inputs": [
        {
          "name": "_planeid",
          "type": "uint256"
        },
        {
          "name": "_index",
          "type": "uint256"
        }
      ],
      "name": "getInsuranceInfo",
      "outputs": [
        {
          "name": "",
          "type": "uint256"
        },
        {
          "name": "",
          "type": "string"
        },
        {
          "name": "",
          "type": "uint256"
        },
        {
          "name": "",
          "type": "uint256"
        }
      ],
      "payable": false,
      "stateMutability": "view",
      "type": "function"
    },
    {
      "constant": true,
      "inputs": [
        {
          "name": "_planeid",
          "type": "uint256"
        }
      ],
      "name": "getPartCount",
      "outputs": [
        {
          "name": "",
          "type": "uint256"
        }
      ],
      "payable": false,
      "stateMutability": "view",
      "type": "function"
    },
    {
      "constant": true,
      "inputs": [
        {
          "name": "_planeid",
          "type": "uint256"
        }
      ],
      "name": "getFlightCount",
      "outputs": [
        {
          "name": "",
          "type": "uint256"
        }
      ],
      "payable": false,
      "stateMutability": "view",
      "type": "function"
    },
    {
      "constant": true,
      "inputs": [
        {
          "name": "_planeid",
          "type": "uint256"
        }
      ],
      "name": "getInsuranceCount",
      "outputs": [
        {
          "name": "",
          "type": "uint256"
        }
      ],
      "payable": false,
      "stateMutability": "view",
      "type": "function"
    },
    {
      "constant": true,
      "inputs": [],
      "name": "getOwner",
      "outputs": [
        {
          "name": "",
          "type": "address"
        }
      ],
      "payable": false,
      "stateMutability": "view",
      "type": "function"
    },
    {
      "constant": true,
      "inputs": [
        {
          "name": "s1",
          "type": "string"
        },
        {
          "name": "s2",
          "type": "string"
        }
      ],
      "name": "compareStringsbyBytes",
      "outputs": [
        {
          "name": "",
          "type": "bool"
        }
      ],
      "payable": false,
      "stateMutability": "pure",
      "type": "function"
    },
    {
      "constant": true,
      "inputs": [
        {
          "name": "_name",
          "type": "string"
        }
      ],
      "name": "getIDbyName",
      "outputs": [
        {
          "name": "",
          "type": "uint256"
        }
      ],
      "payable": false,
      "stateMutability": "view",
      "type": "function"
    }
  ],
  "bytecode": "0x608060405234801561001057600080fd5b5033600160006101000a81548173ffffffffffffffffffffffffffffffffffffffff021916908373ffffffffffffffffffffffffffffffffffffffff160217905550611fdb806100616000396000f3006080604052600436106100e6576000357c0100000000000000000000000000000000000000000000000000000000900463ffffffff1680630df85f38146100eb57806310826ea51461017c57806348bd7601146101bd5780634cf9e4d81461028057806356c0d8da146102c157806357edaa9414610394578063893d20e8146103d5578063995bef941461042c578063a6b31e9c14610556578063a87d942c146105d3578063cb3d35bc146105fe578063cb5a278114610685578063cfea9eff1461074a578063e1bcc75b146107f9578063e9a734ff1461083a578063eb5b8bca14610901575b600080fd5b3480156100f757600080fd5b5061017a60048036038101908080359060200190929190803590602001908201803590602001908080601f0160208091040260200160405190810160405280939291908181526020018383808284378201915050505050509192919290803590602001909291908035906020019092919080359060200190929190505050610a2f565b005b34801561018857600080fd5b506101a760048036038101908080359060200190929190505050610ca7565b6040518082815260200191505060405180910390f35b3480156101c957600080fd5b5061027e60048036038101908080359060200190929190803590602001908201803590602001908080601f0160208091040260200160405190810160405280939291908181526020018383808284378201915050505050509192919290803590602001908201803590602001908080601f016020809104026020016040519081016040528093929190818152602001838380828437820191505050505050919291929080359060200190929190505050610cc7565b005b34801561028c57600080fd5b506102ab60048036038101908080359060200190929190505050610fef565b6040518082815260200191505060405180910390f35b3480156102cd57600080fd5b506102f66004803603810190808035906020019092919080359060200190929190505050611012565b6040518087815260200180602001868152602001858152602001848152602001838152602001828103825287818151815260200191508051906020019080838360005b83811015610354578082015181840152602081019050610339565b50505050905090810190601f1680156103815780820380516001836020036101000a031916815260200191505b5097505050505050505060405180910390f35b3480156103a057600080fd5b506103bf6004803603810190808035906020019092919050505061120b565b6040518082815260200191505060405180910390f35b3480156103e157600080fd5b506103ea61122b565b604051808273ffffffffffffffffffffffffffffffffffffffff1673ffffffffffffffffffffffffffffffffffffffff16815260200191505060405180910390f35b34801561043857600080fd5b506104616004803603810190808035906020019092919080359060200190929190505050611255565b604051808581526020018060200180602001848152602001838103835286818151815260200191508051906020019080838360005b838110156104b1578082015181840152602081019050610496565b50505050905090810190601f1680156104de5780820380516001836020036101000a031916815260200191505b50838103825285818151815260200191508051906020019080838360005b838110156105175780820151818401526020810190506104fc565b50505050905090810190601f1680156105445780820380516001836020036101000a031916815260200191505b50965050505050505060405180910390f35b34801561056257600080fd5b506105bd600480360381019080803590602001908201803590602001908080601f0160208091040260200160405190810160405280939291908181526020018383808284378201915050505050509192919290505050611477565b6040518082815260200191505060405180910390f35b3480156105df57600080fd5b506105e8611571565b6040518082815260200191505060405180910390f35b34801561060a57600080fd5b5061068360048036038101908080359060200190929190803590602001908201803590602001908080601f0160208091040260200160405190810160405280939291908181526020018383808284378201915050505050509192919290803590602001909291908035906020019092919050505061157a565b005b34801561069157600080fd5b506106ba600480360381019080803590602001909291908035906020019092919050505061178a565b6040518085815260200180602001848152602001838152602001828103825285818151815260200191508051906020019080838360005b8381101561070c5780820151818401526020810190506106f1565b50505050905090810190601f1680156107395780820380516001836020036101000a031916815260200191505b509550505050505060405180910390f35b34801561075657600080fd5b506107f7600480360381019080803590602001908201803590602001908080601f0160208091040260200160405190810160405280939291908181526020018383808284378201915050505050509192919290803590602001908201803590602001908080601f0160208091040260200160405190810160405280939291908181526020018383808284378201915050505050509192919290505050611911565b005b34801561080557600080fd5b5061082460048036038101908080359060200190929190505050611b2a565b6040518082815260200191505060405180910390f35b34801561084657600080fd5b506108e7600480360381019080803590602001908201803590602001908080601f0160208091040260200160405190810160405280939291908181526020018383808284378201915050505050509192919290803590602001908201803590602001908080601f0160208091040260200160405190810160405280939291908181526020018383808284378201915050505050509192919290505050611b4a565b604051808215151515815260200191505060405180910390f35b34801561090d57600080fd5b5061092c60048036038101908080359060200190929190505050611c23565b604051808060200180602001878152602001868152602001858152602001848152602001838103835289818151815260200191508051906020019080838360005b8381101561098857808201518184015260208101905061096d565b50505050905090810190601f1680156109b55780820380516001836020036101000a031916815260200191505b50838103825288818151815260200191508051906020019080838360005b838110156109ee5780820151818401526020810190506109d3565b50505050905090810190601f168015610a1b5780820380516001836020036101000a031916815260200191505b509850505050505050505060405180910390f35b610a37611e01565b6000600160009054906101000a900473ffffffffffffffffffffffffffffffffffffffff1673ffffffffffffffffffffffffffffffffffffffff163373ffffffffffffffffffffffffffffffffffffffff16141515610a9557600080fd5b6002600088815260200190815260200160002060020154905080826000018181525050858260200181905250838260600181815250508482604001818152505082826080018181525050600260008881526020019081526020016000206006018290806001815401808255809150509060018203906000526020600020906006020160009091929091909150600082015181600001556020820151816001019080519060200190610b47929190611e38565b5060408201518160020155606082015181600301556080820151816004015560a0820151816005015550505060026000888152602001908152602001600020600201600081548092919060010191905055508260026000898152602001908152602001600020600301540160026000898152602001908152602001600020600301819055507f12386712aaf707073edee0ede4c4011e655a96549d06c638aac16bba37cdfc7981888886600260008d8152602001908152602001600020600301546040518086815260200185815260200180602001848152602001838152602001828103825285818151815260200191508051906020019080838360005b83811015610c60578082015181840152602081019050610c45565b50505050905090810190601f168015610c8d5780820380516001836020036101000a031916815260200191505b50965050505050505060405180910390a150505050505050565b600060026000838152602001908152602001600020600401549050919050565b610ccf611eb8565b600080600160009054906101000a900473ffffffffffffffffffffffffffffffffffffffff1673ffffffffffffffffffffffffffffffffffffffff163373ffffffffffffffffffffffffffffffffffffffff16141515610d2e57600080fd5b600260008881526020019081526020016000206004015491508183600001818152505085836020018190525084836040018190525083836060018181525050600260008881526020019081526020016000206007018390806001815401808255809150509060018203906000526020600020906004020160009091929091909150600082015181600001556020820151816001019080519060200190610dd5929190611e38565b506040820151816002019080519060200190610df2929190611e38565b50606082015181600301555050506002600088815260200190815260200160002060040160008154809291906001019190505550600090505b6002600088815260200190815260200160002060020154811015610ec557836002600089815260200190815260200160002060060182815481101515610e6d57fe5b906000526020600020906006020160050154016002600089815260200190815260200160002060060182815481101515610ea357fe5b9060005260206000209060060201600501819055508080600101915050610e2b565b7f9d013b12e8cb46567a22e153048d608282f2365f29609d569ac5718f93d89d138288888888604051808681526020018581526020018060200180602001848152602001838103835286818151815260200191508051906020019080838360005b83811015610f41578082015181840152602081019050610f26565b50505050905090810190601f168015610f6e5780820380516001836020036101000a031916815260200191505b50838103825285818151815260200191508051906020019080838360005b83811015610fa7578082015181840152602081019050610f8c565b50505050905090810190601f168015610fd45780820380516001836020036101000a031916815260200191505b5097505050505050505060405180910390a150505050505050565b600381815481101515610ffe57fe5b906000526020600020016000915090505481565b60006060600080600080600260008981526020019081526020016000206006018781548110151561103f57fe5b906000526020600020906006020160000154600260008a81526020019081526020016000206006018881548110151561107457fe5b9060005260206000209060060201600101600260008b8152602001908152602001600020600601898154811015156110a857fe5b906000526020600020906006020160020154600260008c81526020019081526020016000206006018a8154811015156110dd57fe5b906000526020600020906006020160030154600260008d81526020019081526020016000206006018b81548110151561111257fe5b906000526020600020906006020160040154600260008e81526020019081526020016000206006018c81548110151561114757fe5b906000526020600020906006020160050154848054600181600116156101000203166002900480601f0160208091040260200160405190810160405280929190818152602001828054600181600116156101000203166002900480156111ee5780601f106111c3576101008083540402835291602001916111ee565b820191906000526020600020905b8154815290600101906020018083116111d157829003601f168201915b505050505094509550955095509550955095509295509295509295565b600060026000838152602001908152602001600020600501549050919050565b6000600160009054906101000a900473ffffffffffffffffffffffffffffffffffffffff16905090565b60006060806000600260008781526020019081526020016000206007018581548110151561127f57fe5b90600052602060002090600402016000015460026000888152602001908152602001600020600701868154811015156112b457fe5b906000526020600020906004020160010160026000898152602001908152602001600020600701878154811015156112e857fe5b9060005260206000209060040201600201600260008a81526020019081526020016000206007018881548110151561131c57fe5b906000526020600020906004020160030154828054600181600116156101000203166002900480601f0160208091040260200160405190810160405280929190818152602001828054600181600116156101000203166002900480156113c35780601f10611398576101008083540402835291602001916113c3565b820191906000526020600020905b8154815290600101906020018083116113a657829003601f168201915b50505050509250818054600181600116156101000203166002900480601f01602080910402602001604051908101604052809291908181526020018280546001816001161561010002031660029004801561145f5780601f106114345761010080835404028352916020019161145f565b820191906000526020600020905b81548152906001019060200180831161144257829003601f168201915b50505050509150935093509350935092959194509250565b60008060006003805490509150600090505b81811115156115645761154a600260008381526020019081526020016000206000018054600181600116156101000203166002900480601f01602080910402602001604051908101604052809291908181526020018280546001816001161561010002031660029004801561153f5780601f106115145761010080835404028352916020019161153f565b820191906000526020600020905b81548152906001019060200180831161152257829003601f168201915b505050505085611b4a565b156115575780925061156a565b8080600101915050611489565b6103e792505b5050919050565b60008054905090565b611582611ee1565b6000600160009054906101000a900473ffffffffffffffffffffffffffffffffffffffff1673ffffffffffffffffffffffffffffffffffffffff163373ffffffffffffffffffffffffffffffffffffffff161415156115e057600080fd5b60026000878152602001908152602001600020600501549050808260000181815250508482602001819052508382604001818152505082826060018181525050600260008781526020019081526020016000206008018290806001815401808255809150509060018203906000526020600020906004020160009091929091909150600082015181600001556020820151816001019080519060200190611688929190611e38565b50604082015181600201556060820151816003015550505060026000878152602001908152602001600020600501600081548092919060010191905055507f8f41790da5f60b8aa73503f032feeb6deb7ec894cc48348b2e43c76712aae17881878787876040518086815260200185815260200180602001848152602001838152602001828103825285818151815260200191508051906020019080838360005b83811015611744578082015181840152602081019050611729565b50505050905090810190601f1680156117715780820380516001836020036101000a031916815260200191505b50965050505050505060405180910390a1505050505050565b6000606060008060026000878152602001908152602001600020600801858154811015156117b457fe5b90600052602060002090600402016000015460026000888152602001908152602001600020600801868154811015156117e957fe5b9060005260206000209060040201600101600260008981526020019081526020016000206008018781548110151561181d57fe5b906000526020600020906004020160020154600260008a81526020019081526020016000206008018881548110151561185257fe5b906000526020600020906004020160030154828054600181600116156101000203166002900480601f0160208091040260200160405190810160405280929190818152602001828054600181600116156101000203166002900480156118f95780601f106118ce576101008083540402835291602001916118f9565b820191906000526020600020905b8154815290600101906020018083116118dc57829003601f168201915b50505050509250935093509350935092959194509250565b600080600160009054906101000a900473ffffffffffffffffffffffffffffffffffffffff1673ffffffffffffffffffffffffffffffffffffffff163373ffffffffffffffffffffffffffffffffffffffff1614151561197057600080fd5b6001600054019150600260008381526020019081526020016000209050838160000190805190602001906119a5929190611f0a565b50828160010190805190602001906119be929190611f0a565b506000816002018190555060008160030181905550600160038390806001815401808255809150509060018203906000526020600020016000909192909190915055505060008081548092919060010191905055507f01cd5c4561b536a5c67f1775a2400eb1817b8afb0a17b6d73ed91acfc73ca28b848484604051808060200180602001848152602001838103835286818151815260200191508051906020019080838360005b83811015611a81578082015181840152602081019050611a66565b50505050905090810190601f168015611aae5780820380516001836020036101000a031916815260200191505b50838103825285818151815260200191508051906020019080838360005b83811015611ae7578082015181840152602081019050611acc565b50505050905090810190601f168015611b145780820380516001836020036101000a031916815260200191505b509550505050505060405180910390a150505050565b600060026000838152602001908152602001600020600201549050919050565b6000816040518082805190602001908083835b602083101515611b825780518252602082019150602081019050602083039250611b5d565b6001836020036101000a038019825116818451168082178552505050505050905001915050604051809103902060001916836040518082805190602001908083835b602083101515611be95780518252602082019150602081019050602083039250611bc4565b6001836020036101000a03801982511681845116808217855250505050505090500191505060405180910390206000191614905092915050565b6060806000806000806002600088815260200190815260200160002060000160026000898152602001908152602001600020600101600260008a815260200190815260200160002060020154600260008b815260200190815260200160002060040154600260008c815260200190815260200160002060050154600260008d815260200190815260200160002060030154858054600181600116156101000203166002900480601f016020809104026020016040519081016040528092919081815260200182805460018160011615610100020316600290048015611d495780601f10611d1e57610100808354040283529160200191611d49565b820191906000526020600020905b815481529060010190602001808311611d2c57829003601f168201915b50505050509550848054600181600116156101000203166002900480601f016020809104026020016040519081016040528092919081815260200182805460018160011615610100020316600290048015611de55780601f10611dba57610100808354040283529160200191611de5565b820191906000526020600020905b815481529060010190602001808311611dc857829003601f168201915b5050505050945095509550955095509550955091939550919395565b60c0604051908101604052806000815260200160608152602001600081526020016000815260200160008152602001600081525090565b828054600181600116156101000203166002900490600052602060002090601f016020900481019282601f10611e7957805160ff1916838001178555611ea7565b82800160010185558215611ea7579182015b82811115611ea6578251825591602001919060010190611e8b565b5b509050611eb49190611f8a565b5090565b608060405190810160405280600081526020016060815260200160608152602001600081525090565b608060405190810160405280600081526020016060815260200160008152602001600081525090565b828054600181600116156101000203166002900490600052602060002090601f016020900481019282601f10611f4b57805160ff1916838001178555611f79565b82800160010185558215611f79579182015b82811115611f78578251825591602001919060010190611f5d565b5b509050611f869190611f8a565b5090565b611fac91905b80821115611fa8576000816000905550600101611f90565b5090565b905600a165627a7a723058208db996e7e450fdc3783b332c9d656cec8ba32c95d35f268cfb3accbfbc79e1d20029",
  "source": "pragma solidity ^0.4.24;\r\n\r\ncontract Maintenance {\r\n    uint planecount;\r\n    struct Part {\r\n        uint partid;\r\n        string manufacturer; //will use numbers to show manufacturers, since string will take a lot fo space\r\n        uint status;\r\n        uint rev; //revision number\r\n        uint cost;\r\n        uint usehours;\r\n    }\r\n    \r\n    struct Flight {\r\n        uint flightid;\r\n        string source;\r\n        string destination;\r\n        uint travelhours;\r\n    }\r\n    \r\n    struct Insurance {\r\n        uint insuranceid;\r\n        string typeofins;\r\n        uint cost;\r\n        uint year;\r\n    }\r\n    \r\n    struct Airplane {\r\n        //uint id;\r\n        string name;\r\n        string airline;\r\n        uint partcount;\r\n        uint totalcost;\r\n        uint flightcount;\r\n        uint insurancecount;\r\n        Part[] parts;\r\n        Flight[] flights;\r\n        Insurance[] insurances;\r\n    }\r\n    \r\n    \r\n    \r\n    event addAirplane(\r\n        string name,\r\n        string airline,\r\n        uint id\r\n    );\r\n    \r\n    event addPart(\r\n        uint partid,\r\n        uint planeid,\r\n        string manufacturer,\r\n        uint cost,\r\n        uint totalcost\r\n    );\r\n    \r\n    event addFlight(\r\n        uint flightid,\r\n        uint planeid,\r\n        string source,\r\n        string destination,\r\n        uint travelhours\r\n    );\r\n    \r\n    event addInsurance(\r\n        uint insuranceid,\r\n        uint planeid,\r\n        string typeofins,\r\n        uint cost,\r\n        uint travelhours\r\n    );\r\n    \r\n    address owner;\r\n    \r\n    constructor() public {\r\n        owner=msg.sender;\r\n    }\r\n    \r\n    modifier onlyOwner {\r\n        require(msg.sender == owner);\r\n        _;\r\n    }\r\n    \r\n    mapping (uint => Airplane) airplanes;\r\n    uint[] public AirplanesList;\r\n    \r\n    function setAirplane( string _name, string _airline) public onlyOwner  {\r\n        var id=planecount+1;\r\n        var plane = airplanes[id];\r\n        plane.name = _name;\r\n        plane.airline= _airline;\r\n        plane.partcount=0;\r\n        plane.totalcost=0;\r\n        AirplanesList.push(id) -1;\r\n        planecount++;\r\n        emit addAirplane(_name,_airline,id);\r\n    }\r\n    \r\n    function getCount() view public returns(uint) {\r\n        return (planecount);\r\n    }\r\n    \r\n    function getAirplane(uint _id) view public returns (string, string, uint, uint, uint, uint) {\r\n        return(airplanes[_id].name,airplanes[_id].airline,airplanes[_id].partcount, airplanes[_id].flightcount, airplanes[_id].insurancecount, airplanes[_id].totalcost);\r\n    }\r\n    \r\n    function setPart(uint _planeid, string _manufacturer, uint _status, uint _rev, uint _cost) public onlyOwner  {\r\n        Part memory temp;\r\n        var id = airplanes[_planeid].partcount;\r\n        temp.partid=id;\r\n        temp.manufacturer=_manufacturer;\r\n        temp.rev=_rev;\r\n        temp.status=_status;\r\n        temp.cost=_cost;\r\n        \r\n        airplanes[_planeid].parts.push(temp);\r\n        airplanes[_planeid].partcount++;\r\n        airplanes[_planeid].totalcost=airplanes[_planeid].totalcost+_cost;\r\n        emit addPart(id, _planeid, _manufacturer, _cost, airplanes[_planeid].totalcost);\r\n    }\r\n    \r\n    \r\n    function getPartInfo(uint _planeid,uint index) view public returns (uint,string,uint,uint, uint,uint) {\r\n        return(airplanes[_planeid].parts[index].partid,airplanes[_planeid].parts[index].manufacturer, airplanes[_planeid].parts[index].status, airplanes[_planeid].parts[index].rev, airplanes[_planeid].parts[index].cost, airplanes[_planeid].parts[index].usehours);\r\n    }\r\n    \r\n    function setFlight(uint _planeid, string _source, string _destination, uint _travelhours) public onlyOwner  {\r\n        Flight memory temp;\r\n        var id = airplanes[_planeid].flightcount;\r\n        temp.flightid=id;\r\n        temp.source=_source;\r\n        temp.destination=_destination;\r\n        temp.travelhours=_travelhours;\r\n        \r\n        airplanes[_planeid].flights.push(temp);\r\n        airplanes[_planeid].flightcount++;\r\n        \r\n        for(uint i=0;i<airplanes[_planeid].partcount;i++) {\r\n             airplanes[_planeid].parts[i].usehours=airplanes[_planeid].parts[i].usehours+_travelhours;\r\n        }\r\n        \r\n        emit addFlight(id, _planeid, _source, _destination, _travelhours);\r\n    }\r\n\r\n    function getFlightInfo(uint _planeid,uint _index) view public returns(uint, string, string, uint) {\r\n        return(airplanes[_planeid].flights[_index].flightid, airplanes[_planeid].flights[_index].source, airplanes[_planeid].flights[_index].destination,airplanes[_planeid].flights[_index].travelhours);        \r\n    }\r\n    \r\n    function setInsurance(uint _planeid, string _typeofins, uint _cost, uint _year) public onlyOwner  {\r\n        Insurance memory temp;\r\n        var id = airplanes[_planeid].insurancecount;\r\n        temp.insuranceid=id;\r\n        temp.typeofins=_typeofins;\r\n        temp.cost=_cost;\r\n        temp.year=_year;\r\n        \r\n        airplanes[_planeid].insurances.push(temp);\r\n        airplanes[_planeid].insurancecount++;\r\n        emit addInsurance(id, _planeid, _typeofins, _cost, _year);\r\n    }\r\n    \r\n    function getInsuranceInfo(uint _planeid, uint _index) view public returns(uint,string,uint,uint) {\r\n        return( airplanes[_planeid].insurances[_index].insuranceid, airplanes[_planeid].insurances[_index].typeofins,airplanes[_planeid].insurances[_index].cost,airplanes[_planeid].insurances[_index].year);\r\n    }\r\n    \r\n    function getPartCount(uint _planeid) view public returns(uint) {\r\n        return(airplanes[_planeid].partcount);\r\n    }\r\n    \r\n    function getFlightCount(uint _planeid) view public returns(uint) {\r\n        return(airplanes[_planeid].flightcount);\r\n    }\r\n    \r\n    function getInsuranceCount(uint _planeid) view public returns(uint) {\r\n        return(airplanes[_planeid].insurancecount);\r\n    }\r\n\r\n    function getOwner() view public returns(address) {\r\n        return owner;\r\n    }\r\n   \r\n   function compareStringsbyBytes(string s1, string s2) public pure returns(bool){\r\n    return keccak256(s1) == keccak256(s2);\r\n   }\r\n    \r\n    function getIDbyName(string _name) view public returns(uint) {\r\n        uint c = AirplanesList.length;\r\n        for(uint i =0;i<=c;i++) {\r\n            if(compareStringsbyBytes(airplanes[i].name,_name)) {\r\n                return i;\r\n            }\r\n        }\r\n        return 999;\r\n    }\r\n    \r\n}",
  "sourcePath": "/home/viral/Code/Blockchain/ETHIndia/airplane/contracts/Maintenance.sol",
  "compiler": {
    "name": "solc",
    "version": "0.4.24+commit.e67f0147.Emscripten.clang"
  },
  "schemaVersion": "2.0.1",
  "updatedAt": "2018-08-12T03:33:47.179Z"
}